:100000000C9456010C9487010C9487010C94870181
:100010000C9487010C9487010C9487010C94870140
:100020000C9487010C9487010C9487010C94870130
:100030000C9487010C9487010C9487010C94870120
:100040000C9487010C9487010C9487010C94870110
:100050000C9487010C9487010C9487010C949B07E6
:100060000C9487010C94B0030C9486030C948701C4
:100070000C9487010C9487010C9487010C948701E0
:100080000C9487010C9487010C9487010C948701D0
:100090000C9487010C9487010C9487010C94E6035F
:1000A0000C9487010C9487010C9487010C948701B0
:1000B0000C9487010C9487010C9487010C948701A0
:1000C0000C9487010C9487010C9487010C94870190
:1000D0000C9487010C9487010C9487010C94870180
:1000E0000C9487012D0730071F0723072707670791
:1000F000340738073E07420746074C0750075407A6
:1001000067075A075E076207084AD73B3BCE016E76
:1001100084BCBFFDC12F3D6C74319ABD56833DDA5E
:100120003D00C77F11BED9E4BB4C3E916BAAAABE6D
:10013000000000803F000C9481030C9462070C9433
:1001400089010C9434070C9442070C94C4010C945C
:1001500051030C946B020C945E070C941E020C94D9
:1001600027070C945A070C94F8020C9446070C9439
:10017000D8010C948A010C94B5010C94E6010C94FE
:100180001F070C94F9020C942D070C9423070C9470
:1001900024030C941C030C9408030C9430070C9457
:1001A00050070C943E070C9438070C94E50F0C9400
:1001B0004C070C9467070C9454070C948B010000B7
:1001C0002200250028002B002E00310034000201FF
:1001D0000000050108010B010505050507050808D4
:1001E0000808020202020A0A0808040404040101C1
:1001F00001010101010103030303030303030407D6
:1002000007070C0C0C0C0C0C0C0C0202020206066C
:100210000606060606060B0B0B0B0B0B0B0B01025F
:100220001020200808102040102040800201020108
:1002300008040201010204081020408080402010C0
:100240000804020180040201804020100804020119
:100250000804020101020408102040800102040881
:100260001020408000000A0B02090C0D0E08070345
:100270000401000000000000000000000000000079
:10028000000000000000000000000000000000006E
:10029000121110000000000000000000000000002B
:1002A00000000000000000000000E50F11241FBE48
:1002B000CFEFD1E2DEBFCDBF00E00CBF12E0A0E087
:1002C000B2E0ECE9F6E200E00BBF02C007900D924D
:1002D000A039B107D9F724E0A0E9B2E001C01D922E
:1002E000A236B207E1F711E0C6E5D1E000E006C0B2
:1002F00021970109802FFE010E944610C535D107C4
:1003000080E00807A9F70E94E5070C944C130C94B1
:10031000000008950895CF92DF92EF92FF920F931D
:100320001F93CF93DF936C017A018B01C0E0D0E083
:10033000CE15DF0581F0D8016D918D01D601ED91CB
:10034000FC910190F081E02DC6011995892B11F0E7
:100350002196EECF7E01C701DF91CF911F910F91C2
:10036000FF90EF90DF90CF900895FC01538D448D66
:10037000252F30E0842F90E0821B930B541710F050
:10038000CF96089501970895FC01918D828D98175D
:1003900061F0828DDF01A80FB11D5D968C91928D69
:1003A0009F5F9F73928F90E008958FEF9FEF089566
:1003B000FC01918D828D981731F0828DE80FF11D2F
:1003C000858D90E008958FEF9FEF0895FC01918D4A
:1003D000228D892F90E0805C9F4F821B91098F7343
:1003E0009927089588E493E00E94E60121E0892B93
:1003F00009F420E0822F0895FC01848DDF01A80F0D
:10040000B11DA35ABF4F2C91848D90E001968F733C
:100410009927848FA689B7892C93A089B1898C915B
:10042000837080648C93938D848D981306C00288AA
:10043000F389E02D80818F7D80830895EF92FF9274
:100440000F931F93CF93DF93EC0181E0888F9B8DF7
:100450008C8D981305C0E889F989808185FD26C0B7
:10046000F62E0B8D10E00F5F1F4F0F731127E02E3C
:100470008C8DE8120CC00FB607FCFACFE889F98919
:10048000808185FFF5CFCE010E94FC01F1CF8B8DDD
:10049000FE01E80FF11DE35AFF4FF0829FB7F89479
:1004A0000B8FEA89FB89808180620AC09FB7F8942C
:1004B000EE89FF896083E889F9898081837080648F
:1004C00080839FBF81E090E0DF91CF911F910F91DA
:1004D000FF90EF900895CF93DF93EC01888D8823F0
:1004E000C9F0EA89FB89808185FD05C0A889B989A1
:1004F0008C9186FD0FC00FB607FCF5CF808185FF7C
:10050000F2CFA889B9898C9185FFEDCFCE010E94E9
:10051000FC01E7CFDF91CF91089580E090E0892B37
:1005200021F00E94F201811125C080E090E0892B2A
:1005300041F080E090E0892B21F00E9400008111C1
:100540001CC080E090E0892B41F080E090E0892B96
:1005500021F00E940000811113C080E090E0892BFF
:10056000A1F080E090E0892B81F00E9400008111D1
:100570000AC008950E940000D8CF0E940000E1CF79
:100580000E940000EACF0C940000089585ED80934E
:10059000BC008091BC0084FDFCCF109247030895FD
:1005A0004091B002262F30E0240F311D2132310559
:1005B000DCF4209147032430C9F4FC0180E090E092
:1005C000861758F43091B0022191DC01A057BD4F3D
:1005D000A30FB11D2C930196F3CF8091B002680F49
:1005E0006093B00280E0089581E0089582E008956C
:1005F0000895E091D8028091D702E81730F4F0E036
:10060000EF5FFC4F808190E008958FEF9FEF08959A
:100610009091D8028091D702981750F4E92FF0E01A
:10062000EF5FFC4F208130E09F5F9093D80202C0C3
:100630002FEF3FEFC90108958091D70290E02091FC
:10064000D802821B91090895CF92DF92EF92FF9218
:100650000F931F93CF93DF937C01CB018A012091ED
:10066000DD02222389F0EB016B01C40ED51ECC15EF
:10067000DD0569F06991D701ED91FC910190F08160
:10068000E02DC7011995F3CF642F0E94D002C80155
:10069000DF91CF911F910F91FF90EF90DF90CF905E
:1006A0000895CF93DF931F92CDB7DEB76983209172
:1006B000DD022223D1F020910003203240F021E01E
:1006C00030E0FC013383228380E090E015C080910C
:1006D000DE02E82FF0E0E152FD4F998190838F5FB9
:1006E0008093DE028093000305C061E0CE01019695
:1006F0000E94D00281E090E00F90DF91CF910895A9
:10070000089580E090E008950E9447131F920F9291
:100710000FB60F9211240BB60F922F933F934F9366
:100720005F936F937F938F939F93AF93BF93EF9359
:10073000FF9388E493E00E94FC01FF91EF91BF9149
:10074000AF919F918F917F916F915F914F913F9169
:100750002F910F900BBE0F900FBE0F901F9018950A
:100760001F920F920FB60F9211240BB60F922F9378
:100770008F939F93EF93FF93E0915803F091590368
:100780008081E0915E03F0915F0382FD12C0908151
:10079000809161038F5F8F7320916203821751F004
:1007A000E0916103F0E0E85BFC4F958F809361037B
:1007B00001C08081FF91EF919F918F912F910F90B8
:1007C0000BBE0F900FBE0F901F9018951F920F92A7
:1007D0000FB60F9211240BB60F922F933F934F93A6
:1007E0005F936F937F938F939F93AF93BF93EF9399
:1007F000FF938091B900887F803609F49CC068F52A
:10080000883209F45BC090F4803109F454C038F4A4
:10081000882309F4F6C0883009F44DC0F6C0883149
:1008200009F44CC0803209F45DC0EFC0803409F493
:1008300068C048F4803309F455C0883309F0E5C036
:1008400080934503D8C0803509F44FC0883509F43A
:100850005DC0883409F0D9C0D6C0883909F4C7C052
:10086000A8F4883709F467C038F4883609F463C0FF
:10087000803709F460C0C9C0883809F4B8C080392D
:1008800009F45FC0803809F0C0C05BC0803B09F448
:1008900086C038F4803A09F466C0883A09F47FC00B
:1008A000B4C0803C09F4A7C0883C09F4A4C0883BCC
:1008B00009F48AC0AAC08091420310C090914403F9
:1008C00080914303981770F5E091440381E08E0F07
:1008D00080934403F0E0EF5DFC4F80818093BB0088
:1008E00085EC86C0809345038EC0E091440381E08F
:1008F0008E0F809344038091BB00F0E0EF5DFC4FCE
:10090000808390914403809143036EC0E09144033F
:1009100081E08E0F809344038091BB00F0E0EF5D97
:10092000FC4F80838091460381116DC081E08093EC
:10093000410384EA61C083E0809347031092D202AE
:10094000CFCF8091D202803208F051C0E091D20224
:1009500081E08E0F8093D2028091BB00F0E0EE54D4
:10096000FD4F8083BDCF85EC8093BC001092470380
:100970008091D202803230F4E091D202F0E0EE5465
:10098000FD4F10826091D20270E0E091D302F091AD
:10099000D40282EB92E019951092D20236C084E024
:1009A000809347031092B1021092B002E091D502F9
:1009B000F091D60219958091B002811105C081E0B5
:1009C0008093B00210929002E091B10281E08E0F0C
:1009D0008093B102F0E0E057FD4F80818093BB002F
:1009E0009091B1028091B002981708F479CF85E810
:1009F0008093BC000AC085EC8093BC001092470332
:100A000004C0109245030E94C602FF91EF91BF916E
:100A1000AF919F918F917F916F915F914F913F9196
:100A20002F910F900BBE0F900FBE0F901F90189537
:100A3000009769F0FC0101900020E9F73197AF01C0
:100A4000481B590BBC0188E493E00C948B0180E0B7
:100A500090E008952F923F924F925F926F927F9213
:100A60008F929F92AF92BF92CF92DF92EF92FF92BE
:100A70000F931F93CF93DF93CDB7DEB7A4970FB635
:100A8000F894DEBF0FBECDBF4B015C01F42E9B017D
:100A9000AC010E942D13882319F081E892E027C051
:100AA00024013501E89477F82FEF3FEF4FE75FE738
:100AB000C301B2010E942D1381110DC02FEF3FEF32
:100AC0004FE75FE7C301B2010E94EA1018161CF459
:100AD00085E892E00CC02FEF3FEF4FE75FE4C501E0
:100AE000B4010E94691218162CF489E892E00E9461
:100AF0001805B8C02FEF3FEF4FE75FECC501B40119
:100B00000E94EA1087FDF1CF20E030E0A901C50185
:100B1000B4010E94EA1087FF0BC06DE288E493E005
:100B20000E941E023C01B7FAB094B7F8B09402C01C
:100B3000612C712C10E060E070E080E09FE3F11622
:100B400041F020E030E040E251E40E94EF101F5FEE
:100B5000F6CFA50194010E944F104B015C010E9449
:100B600061116AA3C72ED82EE92E19A2262F372F7E
:100B7000482F592F8E010F5D1F4F0BA31CA39AE026
:100B8000292E312C412C512CCA01B901A20191010D
:100B90000E942410605DF80162938F0121153105D8
:100BA0004105510589F7CF010E9418058301080FFF
:100BB000191FFF2009F455C06AA17C2D8D2D9E2D93
:100BC0000E9490119B01AC01C501B4010E944E101E
:100BD0004B015C016EE288E493E00E941E02080F64
:100BE000191F8AE0282E312C412C512C20E030E0B6
:100BF00040E251E4C501B4010E9476124B015C0150
:100C00000E9461119B0140E050E019A2CBA0DCA042
:100C1000762E3AA3642EE52ECA01B901A2019101F4
:100C20000E942410605DF60162936F012115310569
:100C30004105510589F7CF010E941805080F191FBA
:100C4000672D7AA1862D9E2D0E9490119B01AC01EB
:100C5000C501B4010E944E104B015C01FA94F110E1
:100C6000C5CFC801A4960FB6F894DEBF0FBECDBFA6
:100C7000DF91CF911F910F91FF90EF90DF90CF9078
:100C8000BF90AF909F908F907F906F905F904F90AC
:100C90003F902F900895CF93DF9342E00E942A0562
:100CA000EC018DE892E00E9418058C0F9D1FDF91EA
:100CB000CF9108950C941805909147039111FCCFA2
:100CC00091E090934703409346032FEF2093450311
:100CD00010924403260F2093430390934203909174
:100CE0004203880F892B8093420380914103813016
:100CF00061F410924103809142038093BB00809184
:100D0000BC0083FDF8CF85EC01C085EE8093BC006C
:100D1000809147038130E1F380914403861710F4FA
:100D200060914403A1E2B3E0E1E0F3E080E08617E4
:100D300021F09D9191938F5FFACF0895282F3091E4
:100D40000003313208F04AC0809147038111FCCF83
:100D50009091FF0242E040934703209346032FEF18
:100D6000209345031092440330934303EFEDF2E0E8
:100D7000A1E2B3E020E0321721F041914D932F5FC3
:100D8000FACF1092420320914203990F922B909335
:100D9000420390914103913061F41092410390918C
:100DA00042039093BB009091BC0093FDF8CF95EC6B
:100DB00001C095EE9093BC00909147039230E1F30F
:100DC000909145039F3F79F080914503803241F037
:100DD00080914503803331F084E005C081E003C099
:100DE00082E001C083E01092DE02109200031092B4
:100DF000DD020895682F85EE93E00C94510390E096
:100E0000FC01EC59FD4F4491FC01E25EFD4F249141
:100E1000FC01E852FE4F9491992309F466C04423E3
:100E200009F455C050E0FA013197E231F10508F0BC
:100E30004EC08827EE58FF4F8F4F0C94461080917C
:100E400080008F7707C0809180008F7D03C08091E4
:100E50008000877F809380003AC084B58F7702C07E
:100E600084B58F7D84BD33C08091B0008F7703C07F
:100E70008091B0008F7D8093B00029C08091900058
:100E80008F7707C0809190008F7D03C08091900084
:100E9000877F809390001BC08091A0008F7707C050
:100EA0008091A0008F7D03C08091A000877F8093F8
:100EB000A0000DC0809120018F7707C08091200194
:100EC0008F7D03C080912001877F80932001E92FCF
:100ED000F0E0EE0FFF1FE254FE4FA591B4918FB7E3
:100EE000F894EC91E22BEC938FBF08953FB7F89400
:100EF00080915E0490915F04A0916004B0916104C0
:100F000026B5A89B05C02F3F19F00196A11DB11D64
:100F10003FBFBA2FA92F982F8827820F911DA11D9F
:100F2000B11DBC01CD0142E0660F771F881F991FDC
:100F30004A95D1F708951F920F920FB60F92112480
:100F40002F933F938F939F93AF93BF938091D90239
:100F50009091DA02A091DB02B091DC0230915D0445
:100F600023E0230F2D3720F40196A11DB11D05C0EC
:100F700026E8230F0296A11DB11D20935D048093E6
:100F8000D9029093DA02A093DB02B093DC02809145
:100F90005E0490915F04A0916004B0916104019699
:100FA000A11DB11D80935E0490935F04A093600423
:100FB000B0936104BF91AF919F918F913F912F9119
:100FC0000F900FBE0F901F901895CF93DF93CDB762
:100FD000DEB7A6970FB6F894DEBF0FBECDBF7894EC
:100FE00084B5826084BD84B5816084BD85B582602E
:100FF00085BD85B5816085BD80916E0081608093DF
:101000006E00109281008091810082608093810047
:101010008091810081608093810080918000816057
:10102000809380008091B10084608093B1008091B2
:10103000B00081608093B0008091910082608093C5
:101040009100809191008160809391008091900047
:101050008160809390008091A10082608093A100C4
:101060008091A10081608093A1008091A0008160A7
:101070008093A00080912101826080932101809162
:101080002101816080932101809120018160809302
:10109000200180917A00846080937A0080917A00A8
:1010A000826080937A0080917A00816080937A00D8
:1010B00080917A00806880937A001092C100E0915C
:1010C0005803F091590382E08083E0915403F0913A
:1010D00055031082E0915603F091570387E6808311
:1010E00010926003E0915C03F0915D0386E08083E1
:1010F000E0915A03F0915B03808180618083E091ED
:101100005A03F0915B03808188608083E0915A03E9
:10111000F0915B03808180688083E0915A03F091B5
:101120005B0380818F7D80831092D8021092D7025A
:101130001092DE02109200031092470321E02093E8
:1011400046031092410384E10E94FF0685E10E945C
:10115000FF068091B9008E7F8093B9008091B9001D
:101160008D7F8093B90088E48093B80085E48093F4
:10117000BC0089E891E09093D6028093D5028AE87A
:1011800091E09093D4028093D3028091F10331E0F7
:101190003093DD028093FF021092DE021092000372
:1011A0008BE690E00E94FA0680E090E00E94FA064A
:1011B00081E00E949E060E9476074B015C0184E15B
:1011C000C82ED12CE12CF12C0E947607DC01CB013A
:1011D00088199909AA09BB09883E9340A105B10560
:1011E00098F381E0C81AD108E108F10898EE890E59
:1011F00093E0991EA11CB11CC114D104E104F104B7
:1012000019F788EC90E09EA38DA38091F10391E003
:101210009093DD028093FF021092DE021092000391
:101220008BE390E00E94FA0680E00E949E0641E077
:1012300066E08091F1030E945C061092D8028093D0
:10124000D70285EE93E00E940803F82E85EE93E026
:101250000E9408033F2C212C82299329BC01990F5D
:10126000880B990B0E94921120E030E040E858E38F
:101270000E9476126093F5037093F6038093F70350
:101280009093F80385EE93E00E940803F82E85EE14
:1012900093E00E940803FA821982A981BA818A2BFD
:1012A0009B2BBC01990F880B990B0E94921120E097
:1012B00030E040E858E30E9476126093F90370939F
:1012C000FA038093FB039093FC0385EE93E00E9466
:1012D0000803F82E85EE93E00E9408031F2D00E01E
:1012E000802B912BBC01990F880B990B0E949211B6
:1012F00020E030E040E858E30E9476126093FD035E
:101300007093FE038093FF0390930004C090F90351
:10131000D090FA03E090FB03F090FC038090F5037B
:101320009090F603A090F703B090F8039B01AC01F6
:101330000E9476122B013C01A5019401C501B40164
:101340000E947612A30192010E944F100E94E9129E
:101350009B01AC01C701B6010E94EF100E94BB10B7
:1013600020E030E044E353E40E9476122BED3FE0AE
:1013700049E450E40E94EF10209135043091360486
:1013800040913704509138040E944F106D837E8342
:101390008F83988760933504709336048093370465
:1013A00090933804A7019601C701B6010E947612F6
:1013B000A30192010E944F100E94E9129B01AC010F
:1013C000C501B40190580E94EF100E94BB1020E0AC
:1013D00030E044E353E40E9476122BED3FE049E411
:1013E00050E40E94EF102091390430913A0440916A
:1013F0003B0450913C040E944F106B017C016093B0
:10140000390470933A0480933B0490933C042DA1DB
:101410003EA1215031093EA32DA3232B09F0F5CE87
:1014200020E030E048E453E46D817E818F8198852F
:101430000E94EF1060933504709336048093370454
:101440009093380420E030E048E453E4C701B6014B
:101450000E94EF106093390470933A0480933B0428
:1014600090933C0488EC90E09A83898311E080910A
:10147000F1031093DD028093FF021092DE021092BE
:10148000000383E490E00E94FA0680E00E949E063A
:1014900041E066E08091F1030E945C061092D80260
:1014A0008093D70285EE93E00E940803F82E85EE24
:1014B00093E00E940803FA861986A985BA858A2BCB
:1014C0009B2BBC01990F880B990B0E949211609382
:1014D000010470930204809303049093040485EE46
:1014E00093E00E940803F82E85EE93E00E94080323
:1014F000FE861D862D853E85822B932BBC01990F80
:10150000880B990B0E949211609305047093060456
:10151000809307049093080485EE93E00E940803EB
:10152000F82E85EE93E00E940803F88A1F86AF85A7
:10153000B8898A2B9B2BBC01990F880B990B0E94B1
:1015400092116B017C016093090470930A048093EB
:101550000B0490930C0420E030E043E053E46091EE
:1015600001047091020480910304909104040E948C
:10157000EF1020913D0430913E0440913F04509182
:1015800040040E944F102B013C0160933D04709376
:101590003E0480933F049093400420E030E043E019
:1015A00053E46091050470910604809107049091C2
:1015B00008040E94EF1020914104309142044091B0
:1015C0004304509144040E944F104B015C0160930E
:1015D000410470934204809343049093440420E0B8
:1015E00030E043E053E4C701B6010E94EF102091C0
:1015F00045043091460440914704509148040E94AC
:101600004F106B017C0160934504709346048093F6
:1016100047049093480429813A81215031093A8343
:101620002983232B09F023CF20E030E048E453E462
:10163000C301B2010E94EF1060933D0470933E0419
:1016400080933F049093400420E030E048E453E46A
:10165000C501B4010E94EF106093410470934204ED
:10166000809343049093440420E030E048E453E442
:10167000C701B6010E94EF106093450470934604C1
:10168000809347049093480488EC90E09A83898380
:1016900011E08091F1031093DD028093FF0210921C
:1016A000DE02109200038BE390E00E94FA0680E0D5
:1016B0000E949E0641E066E08091F1030E945C0674
:1016C0001092D8028093D70285EE93E00E9408031F
:1016D000F82E85EE93E00E940803FA8A198AA989F8
:1016E000BA898A2B9B2BBC01990F880B990B0E94FE
:1016F000921120E030E040E858E30E9476126093B7
:10170000F5037093F6038093F7039093F80385EE47
:1017100093E00E940803F82E85EE93E00E940803F0
:10172000FC8A1B8A2B893C89822B932BBC01990F45
:10173000880B990B0E94921120E030E040E858E3BA
:101740000E9476126093F9037093FA038093FB036F
:101750009093FC0385EE93E00E940803F82E85EE3B
:1017600093E00E940803FE8A1D8AAD89BE898A2BF8
:101770009B2BBC01990F880B990B0E94921120E0C2
:1017800030E040E858E30E9476126093FD037093C6
:10179000FE038093FF03909300042091F5033091A2
:1017A000F6034091F7035091F8036091490470915A
:1017B0004A0480914B0490914C040E944F104B01BD
:1017C0005C016093490470934A0480934B049093A6
:1017D0004C042091F9033091FA034091FB0350919E
:1017E000FC0360914D0470914E0480914F049091E0
:1017F00050040E944F106B017C0160934D04709364
:101800004E0480934F049093500429813A812150D3
:1018100031093A832983232B09F03BCF20E030E0C4
:1018200048E453E4C501B4010E94EF1060934904F9
:1018300070934A0480934B0490934C0420E030E072
:1018400048E453E4C701B6010E94EF1060934D04D1
:1018500070934E0480934F049093500484E292E07E
:101860000E945A06609135047091360480913704C5
:10187000909138040E944B0680E392E00E945A0641
:101880006091390470913A0480913B0490913C043A
:101890000E944B068CE392E00E945A0660913D0440
:1018A00070913E0480913F04909140040E944B0649
:1018B00089E492E00E945A066091410470914204CA
:1018C00080914304909144040E944B0686E592E087
:1018D0000E945A0660914504709146048091470425
:1018E000909148040E944B0683E692E00E945A06BB
:1018F0006091490470914A0480914B0490914C048A
:101900000E944B0681E792E00E945A0660914D04C6
:1019100070914E0480914F04909150040E944B06A8
:101920008091F10331E03093DD028093FF02109249
:10193000DE02109200038BE390E00E94FA0680E042
:101940000E949E0641E06EE08091F1030E945C06D9
:101950001092D8028093D70285EE93E00E9408038C
:10196000898385EE93E00E940803A981A88F1F8ACE
:101970002F89388D822B932BBC01990F880B990BE3
:101980000E94921120E030E040E858E30E94761275
:101990006093F5037093F6038093F7039093F80335
:1019A00085EE93E00E940803898385EE93E00E9410
:1019B000080339813A8F198EA98DBA8D8A2B9B2BFA
:1019C000BC01990F880B990B0E94921120E030E026
:1019D00040E858E30E9476126093F9037093FA038B
:1019E0008093FB039093FC0385EE93E00E94080331
:1019F000898385EE93E00E940803B981BC8F1B8E1A
:101A00002B8D3C8D822B932BBC01990F880B990B4E
:101A10000E94921120E030E040E858E30E947612E4
:101A20006093FD037093FE038093FF039093000483
:101A300085EE93E00E940803898385EE93E00E947F
:101A4000080339813E8F1D8EAD8DBE8D8A2B9B2B59
:101A50009093F4038093F30385EE93E00E940803D0
:101A6000898385EE93E00E940803B981B8A31F8E95
:101A70002F8D38A1822B932BBC01990F880B990BCA
:101A80000E94921120E030E043E053E40E94EF1006
:101A90006093010470930204809303049093040400
:101AA00085EE93E00E940803898385EE93E00E940F
:101AB000080339813AA319A2A9A1BAA18A2B9B2BA9
:101AC000BC01990F880B990B0E94921120E030E025
:101AD00043E053E40E94EF10609305047093060402
:101AE000809307049093080485EE93E00E94080316
:101AF000898385EE93E00E940803B981BCA31BA2F1
:101B00002BA13CA1822B932BBC01990F880B990B25
:101B10000E94921120E030E043E053E40E94EF1075
:101B20006093090470930A0480930B0490930C044F
:101B30008090F9039090FA03A090FB03B090FC030F
:101B4000C090F503D090F603E090F703F090F8030F
:101B50006091FD037091FE038091FF03909100045A
:101B60009B01AC010E9476122B013C01A70196015A
:101B7000C701B6010E947612A30192010E944F1084
:101B80000E94E9129B01AC01C501B4010E94EF1053
:101B90000E94BB1020E030E044E353E40E94761240
:101BA0002BED3FE049E450E40E94EF102091350412
:101BB0003091360440913704509138040E944E1001
:101BC00060930D0470930E0480930F04909310049F
:101BD000A5019401C501B4010E947612A3019201EE
:101BE0000E944F100E94E9129B01AC01C701B6018F
:101BF00090580E94EF100E94BB1020E030E044E3B8
:101C000053E40E9476122BED3FE049E450E40E9439
:101C1000EF102091390430913A0440913B045091E7
:101C20003C040E944E106093110470931204809340
:101C30001304909314048091550490915604A0913C
:101C40005704B09158048093590490935A04A09378
:101C50005B04B0935C042FB7F8946091D902709143
:101C6000DA028091DB029091DC022FBF0E9490117A
:101C700060935504709356048093570490935804CE
:101C80002091590430915A0440915B0450915C04B6
:101C90000E944E1020E030E04AE754E40E94EF102A
:101CA0006B017C0160935104709352048093530440
:101CB0009093540420913D0430913E0440913F04A0
:101CC00050914004609101047091020480910304DA
:101CD000909104040E944E102B013C01609301047A
:101CE00070930204809303049093040420914104B0
:101CF00030914204409143045091440460910504A2
:101D00007091060480910704909108040E944E107F
:101D10004B015C01609305047093060480930704F3
:101D20009093080420914504309146044091470463
:101D3000509148046091090470910A0480910B0449
:101D400090910C040E944E1069837A838B839C834C
:101D50006093090470930A0480930B0490930C041D
:101D6000A3019201C701B6010E94761220911504C9
:101D70003091160440911704509118040E944F109E
:101D80006D837E838F839887609315047093160408
:101D90008093170490931804A5019401C701B6011C
:101DA0000E9476122091190430911A0440911B046C
:101DB00050911C040E944F1069877A878B879C87FB
:101DC0006093190470931A0480931B0490931C046D
:101DD0002091490430914A0440914B0450914C04A5
:101DE0006091F5037091F6038091F7039091F803E9
:101DF0000E944E104B015C016093F5037093F60353
:101E00008093F7039093F80320914D0430914E0492
:101E100040914F04509150046091F9037091FA037E
:101E20008091FB039091FC030E944E102B013C011A
:101E30006093F9037093FA038093FB039093FC0380
:101E4000A5019401C701B6010E94761220912104D8
:101E50003091220440912304509124040E944F1099
:101E60004B015C016093210470932204809323044E
:101E700090932404A3019201C701B6010E94761237
:101E80009B01AC0160912504709126048091270488
:101E9000909128040E944F106093250470932604AB
:101EA000809327049093280429813A814B815C8197
:101EB000C701B6010E9476129B01AC01609131040A
:101EC0007091320480913304909134040E944F1039
:101ED00060933104709332048093330490933404FC
:101EE0002AE037ED43E25DE360910D0470910E044A
:101EF00080910F04909110040E9476126B017C0176
:101F00002FE832EC45E75FE36D817E818F81988514
:101F10000E9476129B01AC01C701B6010E944F10CE
:101F20006093290470932A0480932B0490932C04CB
:101F30002AE037ED43E25DE36091110470911204F1
:101F400080911304909114040E9476126B017C011D
:101F50002FE832EC45E75FE369857A858B859C85C0
:101F60000E9476129B01AC01C701B6010E944F107E
:101F700060932D0470932E0480932F04909330046B
:101F800042E0C501B4010E942A058FE792E00E9459
:101F90005A0660912504709126048091270490913F
:101FA000280442E00E942A058FE792E00E945A0628
:101FB0006091310470913204809133049091340423
:101FC0000E944B060E948D02ABCCE8E4F3E0138242
:101FD000128288EE93E0A0E0B0E084839583A6832C
:101FE000B78324E032E03183208325EC30E035876D
:101FF000248724EC30E03787268720EC30E0318BD3
:10200000208B21EC30E0338B228B22EC30E0358BBF
:10201000248B26EC30E0378B268B118E128E138E9C
:10202000148EE5EEF3E01382128284839583A683F7
:10203000B78386E192E09183808388E690E0909375
:10204000F2038093F1030895A1E21A2EAA1BBB1B91
:10205000FD010DC0AA1FBB1FEE1FFF1FA217B30774
:10206000E407F50720F0A21BB30BE40BF50B661F8A
:10207000771F881F991F1A9469F76095709580954E
:1020800090959B01AC01BD01CF010895EE0FFF1F9C
:10209000881F8BBF0790F691E02D19945058BB27ED
:1020A000AA270E9466100C942F120E94211238F069
:1020B0000E94281220F039F49F3F19F426F40C9462
:1020C000F7110EF4E095E7FB0C94F111E92F0E9453
:1020D000401258F3BA17620773078407950720F078
:1020E00079F4A6F50C9462120EF4E0950B2EBA2F3B
:1020F000A02D0B01B90190010C01CA01A00111240E
:10210000FF27591B99F0593F50F4503E68F11A16B9
:10211000F040A22F232F342F4427585FF3CF46954A
:1021200037952795A795F0405395C9F77EF41F166C
:10213000BA0B620B730B840BBAF09150A1F0FF0F36
:10214000BB1F661F771F881FC2F70EC0BA0F621F22
:10215000731F841F48F4879577956795B795F79512
:102160009E3F08F0B0CF9395880F08F09927EE0FA7
:10217000979587950895DF93DD27B92FBF7740E8BE
:102180005FE31616170648075B0718F4D92F0E945D
:102190006E129F938F937F936F930E942913E8E0B1
:1021A000F1E00E94FA110E942F122F913F914F915E
:1021B0005F910E948912DD2351F09058A2EA2AED26
:1021C0003FE049EC5FE3D0785D270E946610DF9125
:1021D0000C942F120E94CD1108F481E008950E9402
:1021E00003110C942F120E94281258F00E94211201
:1021F00040F029F45F3F29F00C94F11151110C9437
:1022000063120C94F7110E94401268F39923B1F302
:10221000552391F3951B550BBB27AA27621773070C
:10222000840738F09F5F5F4F220F331F441FAA1FA0
:10223000A9F335D00E2E3AF0E0E832D0915050405C
:10224000E695001CCAF72BD0FE2F29D0660F771F0A
:10225000881FBB1F261737074807AB07B0E809F0F0
:10226000BB0B802DBF01FF2793585F4F3AF09E3F75
:10227000510578F00C94F1110C9463125F3FE4F374
:10228000983ED4F3869577956795B795F7959F5FB8
:10229000C9F7880F911D9695879597F90895E1E004
:1022A000660F771F881FBB1F621773078407BA0763
:1022B00020F0621B730B840BBA0BEE1F88F7E095BE
:1022C00008950E94481288F09F5798F0B92F9927D7
:1022D000B751B0F0E1F0660F771F881F991F1AF011
:1022E000BA95C9F714C0B13091F00E946212B1E002
:1022F00008950C946212672F782F8827B85F39F001
:10230000B93FCCF3869577956795B395D9F73EF4A9
:1023100090958095709561957F4F8F4F9F4F089551
:10232000E89409C097FB3EF490958095709561956F
:102330007F4F8F4F9F4F9923A9F0F92F96E9BB2725
:102340009395F695879577956795B795F111F8CFA1
:10235000FAF4BB0F11F460FF1BC06F5F7F4F8F4F0C
:102360009F4F16C0882311F096E911C0772321F002
:102370009EE8872F762F05C0662371F096E8862F9A
:1023800070E060E02AF09A95660F771F881FDAF7F1
:10239000880F9695879597F90895990F0008550F1E
:1023A000AA0BE0E8FEEF16161706E807F907C0F0DB
:1023B00012161306E407F50798F0621B730B840BE3
:1023C000950B39F40A2661F0232B242B252B21F4BD
:1023D00008950A2609F4A140A6958FEF811D811D5D
:1023E000089597F99F6780E870E060E008959FEF97
:1023F00080EC0895DF93CF931F930F93FF92EF929A
:10240000DF927B018C01689406C0DA2EEF010E94F6
:102410008912FE01E894A591259135914591559138
:10242000A6F3EF010E946610FE019701A801DA945D
:1024300069F7DF90EF90FF900F911F91CF91DF919F
:10244000089500240A94161617061806090608951A
:1024500000240A9412161306140605060895092E80
:102460000394000C11F4882352F0BB0F40F4BF2BEF
:1024700011F460FF04C06F5F7F4F8F4F9F4F08952F
:1024800057FD9058440F551F59F05F3F71F0479525
:10249000880F97FB991F61F09F3F79F0879508950A
:1024A000121613061406551FF2CF4695F1DF08C029
:1024B000161617061806991FF1CF86957105610546
:1024C00008940895E894BB2766277727CB0197F9EE
:1024D00008950E94CD1108F48FEF08959B01AC017F
:1024E00060E070E080E89FE30C94EF100E94891296
:1024F0000C942F120E94211238F00E94281220F012
:10250000952311F00C94F1110C94F71111240C94F3
:1025100063120E94401270F3959FC1F3950F50E033
:10252000551F629FF001729FBB27F00DB11D639F85
:10253000AA27F00DB11DAA1F649F6627B00DA11D2B
:10254000661F829F2227B00DA11D621F739FB00DD1
:10255000A11D621F839FA00D611D221F749F332741
:10256000A00D611D231F849F600D211D822F762FDA
:102570006A2F11249F5750409AF0F1F088234AF0B7
:10258000EE0FFF1FBB1F661F771F881F9150504023
:10259000A9F79E3F510580F00C94F1110C94631241
:1025A0005F3FE4F3983ED4F3869577956795B795AA
:1025B000F795E7959F5FC1F7FE2B880F911D9695C4
:1025C000879597F9089519F416F40C94F7110C9463
:1025D00032130E944812B8F39923C9F3B6F39F57F8
:1025E000550B87FF0E9440130024A0E640EA9001AB
:1025F00080585695979528F4805C660F771F881F42
:1026000020F026173707480730F4621B730B840B42
:10261000202931294A2BA695179407942025312586
:102620004A2758F7660F771F881F20F026173707AD
:10263000480730F4620B730B840B200D311D411DD4
:10264000A09581F7B901842F9158880F96958795A9
:1026500008959B01AC010C9476120E94CD11880B59
:10266000990B08959F3F31F0915020F4879577950D
:102670006795B795880F911D9695879597F9089559
:1026800091505040660F771F881FD2F7089581E060
:0C26900090E0F8940C944C13F894FFCFE9
:10269C00000000001E028B01B5016B02E601C401B3
:1026AC00D80100000000510324038103F8021C032D
:1026BC000803F9024163634572726F72583A200045
:1026CC004163634572726F72593A20004779726F99
:1026DC004572726F72583A20004779726F45727268
:1026EC006F72593A20004779726F4572726F725A45
:1026FC003A20005F416363564572726F72583A20FC
:10270C00005F416363564572726F72593A20002F15
:10271C00006E616E00696E66006F7666000D0A00D1
:00000001FF
