:100000000C94DB000C940C010C940C010C940C016E
:100010000C940C010C940C010C940C010C940C012C
:100020000C940C010C940C010C940C010C940C011C
:100030000C940C010C940C010C940C010C940C010C
:100040000C940C010C940C010C940C010C940C01FC
:100050000C940C010C940C010C940C010C94E91000
:100060000C940C010C945D110C9433110C940C0144
:100070000C940C010C940C010C940C010C940C01CC
:100080000C940C010C940C010C940C010C940C01BC
:100090000C940C010C940C010C940C010C940C01AC
:1000A0000C940C010C940C010C940C010C940C019C
:1000B0000C940C010C940C010C940C010C940C018C
:1000C0000C940C010C940C010C940C010C940C017C
:1000D0000C940C010C940C010C940C010C940C016C
:1000E0000C940C010C94D1070C9458010C94490702
:1000F0000C94E6050C94CE040C94F9090C94AA0215
:100100000C94E80D0C9481030C9478030C94660D08
:100110000C94D4040C94A4020C94DA030C94B6024C
:100120000C94AD020C9444060C94BD110C94CB0FAE
:100130000C944D020C943E080C94E0030C94A10224
:100140000C94F90F0C94D1040C947E030C947B0353
:100150000C94B3020C940E010C94DD030C94600615
:100160000C9408100C94C10E0C9485070C94361056
:100170000C9434100C94F30E0C94A7020C94B0025F
:100180000C9447020C9484030C941C100C94BC0235
:100190000C94B9020C94BF020C94A90D0C94530159
:1001A0000C941A060C9483100C941A050C94B50741
:1001B0000C944A02BD1111241FBECFEFD1E2DEBF65
:1001C000CDBF00E00CBF15E0A0E0B2E0E6E0FFE24A
:1001D00000E00BBF02C007900D92A831B107D9F71C
:1001E0002CE0A8E1B5E001C01D92AA3CB207E1F7FE
:1001F00010E0CBEDD0E000E006C021970109802F90
:10020000FE010E942D15CA3DD10780E00807A9F71D
:100210000E94F7120C9481170C940000FC01918D40
:10022000228D892F90E0805C9F4F821B91098F73F4
:100230009927089580E090E0892B21F00E942A10F0
:10024000811125C080E090E0892B41F080E090E0B2
:10025000892B21F00E94000081111CC080E090E0F9
:10026000892B41F080E090E0892B21F00E94000072
:10027000811113C080E090E0892BA1F080E090E034
:10028000892B81F00E94000081110AC008950E940C
:100290000000D8CF0E940000E1CF0E940000EACF0A
:1002A0000C9400000895825A994FFC0180810895B2
:1002B000AF92BF92CF92DF92EF92FF920F931F9374
:1002C000CF93DF9300D01F921F92CDB7DEB7643675
:1002D00071053CF0FC01E25AF94F2081222309F418
:1002E00077C0DA017B018C01BC01615E7D4FED912D
:1002F000FC910190F081E02DCA011995680128EE6A
:10030000C21A2DEFD20A2FEFD6012C93F801E75E27
:10031000FD4F2EEF20833196808331969083319666
:10032000292F280F209520833196E0821696FC9283
:1003300045E050E020E030E0DC011696A417B50758
:1003400034F06191260F311D4F5F5F4FF7CF7C0175
:10035000B8E0EB0EF11C800F911FFC01E15EFD4F38
:1003600020952083E1E0EE16E4E0FE06BCF45601A1
:10037000C5018C199D098E159F056CF5D801129643
:100380008D919C911397F50161915F01DC01ED91D5
:10039000FC910190F081E02D1995EACF87E692E07B
:1003A0009A83898383E08B8383ED92E09D838C83A2
:1003B000D801ED91FC910190F081E02DAE014F5FED
:1003C0005F4F67E070E0C80119958FEF9FEF04C0A1
:1003D00080E090E001C0C7010F900F900F900F9048
:1003E0000F90DF91CF911F910F91FF90EF90DF90D1
:1003F000CF90BF90AF900895CF92DF92EF92FF928F
:10040000FC011082118212821382DB0120E030E0B5
:100410004D9150E0022E02C0440F551F0A94E2F79E
:10042000052E000C660B770BC080D180E280F38034
:100430004C295D296E297F29408351836283738310
:10044000285F3F4F2032310519F7FF90EF90DF9082
:10045000CF900895CF92DF92EF92FF9220E030E0AC
:100460006A017B01022E04C0F694E794D794C794E6
:100470000A94D2F7FC01C192CF01285F3F4F20328E
:10048000310571F7FF90EF90DF90CF9008958CE0E9
:1004900093E008958DE293E008958F929F92AF923A
:1004A000BF92CF92DF92EF92FF920F931F93CF9361
:1004B000DF93EC018B018A81DB018C938B81119698
:1004C0008C9311978C8112968C9312978D81139631
:1004D0008C93C12CD12C812C912C540184E0E82EDA
:1004E000F12C8A819B81AC81BD8188169906AA0670
:1004F000BB06C8F48CAD9DAD8C0D9D1DB8016E0D75
:100500007F1DDC01ED91FC910190F081E02D1995AA
:10051000E80EF91EBFEF8B1A9B0AAB0ABB0AE6E393
:10052000CE0ED11CDECFC701DF91CF911F910F916D
:10053000FF90EF90DF90CF90BF90AF909F908F9003
:1005400008958AE393E008958BE593E008958AE7A0
:1005500093E008958BE993E0089583EB93E0089589
:1005600084ED93E008958DEE93E008958EE094E09D
:10057000089584E294E0089585E494E008954F920C
:100580005F926F927F928F929F92AF92BF92EF9203
:10059000FF920F931F93CF93DF9300D01F92CDB79D
:1005A000DEB77C018B01FB01808190E0A0E0B0E030
:1005B000F70182839383A483B583FB012181922B6E
:1005C000F70182839383A483B583FB012281A22B4D
:1005D000F70182839383A483B583FB012381B22B2C
:1005E000F70182839383A483B583FB01848190E028
:1005F000A0E0B0E0F70186839783A087B187FB0175
:100600002581922BF70186839783A087B187FB0111
:100610002681A22BF70186839783A087B187FB01F0
:100620002781B22BF70186839783A087B187FB01CF
:10063000808590E0A0E0B0E0F70182879387A487EF
:10064000B587FB012185922BF70182879387A487C9
:10065000B587FB012285A22BF70182879387A487A8
:10066000B587FB012385B22BF70182879387A48787
:10067000B587645F7F4FCE0101960E94FC0189819E
:100680009A81AB81BC814C015D01F0E18F0E911C20
:10069000A11CB11CA801415F5F4FFA0120E130E0CD
:1006A0002901612C712C481459046A047B0428F434
:1006B000618161932F5F3F4FF3CFF801E80FF91F7E
:1006C0001786F7015787468740960F900F900F9037
:1006D0000F90DF91CF911F910F91FF90EF90BF90FE
:1006E000AF909F908F907F906F905F904F90089504
:1006F00085E594E0089587E192E0089586E794E027
:10070000089587E994E008954F925F926F927F92E7
:100710008F929F92AF92BF92EF92FF920F931F938F
:10072000CF93DF9300D01F92CDB7DEB77C018B0152
:10073000FB018191BF01F7018283CE0101960E94E6
:10074000FC0189819A81AB81BC814C015D01F5E09E
:100750008F0E911CA11CB11CA8014C5F5F4FFA01C8
:1007600025E030E02901612C712C481459046A04F9
:100770007B0428F4618161932F5F3F4FF3CFF80131
:10078000E80FF91F1482F7015483438305960F90F5
:100790000F900F900F90DF91CF911F910F91FF90CD
:1007A000EF90BF90AF909F908F907F906F905F90F1
:1007B0004F9008958AEA94E008958BEC94E00895B0
:1007C0004F925F926F927F928F929F92AF92BF9261
:1007D000CF92DF92EF92FF920F931F93CF93DF930D
:1007E000CDB7DEB72C970FB6F894DEBF0FBECDBFE6
:1007F0007C018B01DB018C9190E0F7019383828374
:1008000011962C91922B938382836E5F7F4FCE0142
:1008100001960E94FC0189809A80AB80BC802401F3
:100820003501F6E04F0E511C611C711C98012B5FC5
:100830003F4FF90186E090E0AC0160E070E04415C4
:1008400055056605770520F4418141930196F4CF63
:10085000F801E80DF91D1582D70115963C932E93EA
:100860001497B4016A5F7F4F600F711FCE01059628
:100870000E94FC01BAE08B0E911C4D805E806F805F
:100880007884A401092C000C660B770B440D551DD0
:10089000661D771DD801A80DB91DCD01801B910BD8
:1008A0005C01C12CD12CA416B506C606D70628F4C7
:1008B0008D91FD0132978083F0CF5401A40CB51CBB
:1008C000B8016A0D7B1DFB0131971082C4010197AD
:1008D000800F911FF70197838683CE0109960E94AE
:1008E000FC0195012C5F3F4F89859A85AB85BC85BE
:1008F0002901032E000C66087708480E591E6A1E4F
:100900007B1EF5013396E00FF11FA9014A01A12CCE
:10091000B12C84149504A604B70428F46181619372
:100920004F5F5F4FF3CF820F931FF801E80FF91F5E
:10093000DF0111971C9221503109020F131FD701BB
:1009400019961C930E9318972181428150E060E024
:1009500070E0BA0155274427522B2081422B238176
:10096000722BF701428753876487758704962C960C
:100970000FB6F894DEBF0FBECDBFDF91CF911F91B0
:100980000F91FF90EF90DF90CF90BF90AF909F902E
:100990008F907F906F905F904F90089584EE94E0D9
:1009A000089585E095E00895FC01DB014C9150E04D
:1009B00060E070E0428353836483758311968C9169
:1009C0001197582B428353836483758312968C91BD
:1009D0001297682B428353836483758313968C919B
:1009E0001397782B428353836483758314964C91B9
:1009F000149750E060E070E046835783608771870A
:100A000015968C911597582B46835783608771876D
:100A100016968C911697682B46835783608771874B
:100A200017968C91782B468357836087718788E06F
:100A300090E00895DC01FB0112968C91129780835F
:100A400013968C911397818314968C9114978283BB
:100A500015968C911597838316968C91169784839F
:100A600017968C911797858318968C911897868383
:100A700019968C91878388E090E008958F929F92D9
:100A8000AF92BF92CF92DF92EF92FF920F931F939C
:100A9000FC01DB01C380C294C69427E0C2228C2CE7
:100AA000912CA12CB12C8D929D92AD92BC9213975A
:100AB000048110E020E030E043E0000F111F221F0E
:100AC000331F4A95D1F768017901C828D928EA2847
:100AD000FB28CD92DD92ED92FC921397458150E078
:100AE00060E070E01BE0440F551F661F771F1A95EA
:100AF000D1F78A019B010C291D292E293F290D932D
:100B00001D932D933C93139746814F7050E060E006
:100B100070E083E1440F551F661F771F8A95D1F758
:100B2000402B512B622B732B4D935D936D937C93D4
:100B30001397868182958F7007810F7710E020E0F0
:100B400030E094E0000F111F221F331F9A95D1F758
:100B5000082B0115110521053105A1F0005813409E
:100B60002109310997E1000F111F221F331F9A95A8
:100B7000D1F7042B152B262B372B0D931D932D937B
:100B80003C9313974781407850E060E070E0742F09
:100B90006627552744270D911D912D913C91139760
:100BA000402B512B622B732B4D935D936D937C9354
:100BB000139788E090E01F910F91FF90EF90DF90E6
:100BC000CF90BF90AF909F908F900895EF92FF923B
:100BD0000F931F93CF93DF938C017B01BC016E5F5A
:100BE0007F4FC7010E943E05EC01B8016A5F7F4F4D
:100BF000C7018C0F9D1F0E943E05C80FD91FB80169
:100C0000665F7F4FC7018C0F9D1F0E943E05C80F76
:100C1000D91FB801625F7F4FC7018C0F9D1F0E94D3
:100C20003E058C0F9D1FDF91CF911F910F91FF907B
:100C3000EF900895EF92FF920F931F93CF93DF935E
:100C40008C017B01BC016E5F7F4FC7010E943E0596
:100C5000EC01B8016A5F7F4FC7018C0F9D1F0E9496
:100C60003E05C80FD91FB801665F7F4FC7018C0FC3
:100C70009D1F0E943E058C0F9D1FDF91CF911F91FC
:100C80000F91FF90EF900895EF92FF920F931F93B3
:100C9000CF93DF937C01EB0102960E941A068C0130
:100CA000BE01680F791FC70140960E94E605800FBC
:100CB000911FDF91CF911F910F91FF90EF900895B9
:100CC0004F925F926F927F928F929F92AF92BF925C
:100CD000CF92DF92EF92FF920F931F93CF93DF9308
:100CE00000D01F92CDB7DEB77C016B0102960E9447
:100CF000BF028C01B601680F791FCE0101960E94D8
:100D0000FC01C801049689809A80AB80BC80AC014C
:100D1000092E000C660B770B480D591D6A1D7B1DB3
:100D20000D5F1F4FF601E00FF11F9C012901612C9F
:100D3000712C441655066606770628F4A181A19306
:100D40002F5F3F4FF3CF8C01080D191DB601600FC7
:100D5000711FFB013197108201978C0D9D1DF701CA
:100D6000938B828BC70144960E944406800F911F8B
:100D70000F900F900F900F90DF91CF911F910F91D7
:100D8000FF90EF90DF90CF90BF90AF909F908F90AB
:100D90007F906F905F904F9008958F929F92AF9247
:100DA000BF92CF92DF92EF92FF92CF93DF93EC014D
:100DB0004A015B01DB01CA0157E1B595A7959795FB
:100DC00087955A95D1F79927AA27BB270097A105A0
:100DD000B10521F080589C4FAF4FBF4F1882198248
:100DE0001A82B501A40125E0440F551F661F771F25
:100DF0002A95D1F74B83B501A40133E0759567952A
:100E0000579547953A95D1F74C83B501A401EBE08E
:100E10007595679557954795EA95D1F74D83B50137
:100E2000A401F3E17595679557954795FA95D1F724
:100E3000242F2F70AC01BD0134E0440F551F661FF5
:100E4000771F3A95D1F7422B4E836C017D0144E028
:100E5000F594E794D794C7944A95D1F720E030E011
:100E6000A901C501B4010E94441587FD02C0CF82CB
:100E700003C08C2D80688F8388E090E0DF91CF9154
:100E8000FF90EF90DF90CF90BF90AF909F908F90AA
:100E90000895EF92FF920F931F93CF93DF937C01FE
:100EA0008B01FC014281538164817581C8010E94DC
:100EB000CD06EC01F7014681578160857185C80137
:100EC0008C0F9D1F0E94CD06C80FD91FF7014285C8
:100ED000538564857585C8018C0F9D1F0E94CD06C2
:100EE000C80FD91FF7014685578560897189C801E8
:100EF0008C0F9D1F0E94CD068C0F9D1FDF91CF91FF
:100F00001F910F91FF90EF900895EF92FF920F9332
:100F10001F93CF93DF937C018B01FC0142815381AE
:100F200064817581C8010E94CD06EC01F7014681FC
:100F3000578160857185C8018C0F9D1F0E94CD0669
:100F4000C80FD91FF7014285538564857585C8018F
:100F50008C0F9D1F0E94CD068C0F9D1FDF91CF919E
:100F60001F910F91FF90EF900895EF92FF920F93D2
:100F70001F93CF93DF937C01EB0102960E948507BC
:100F80008C01BE01680F791FC70140960E94490776
:100F9000800F911FDF91CF911F910F91FF90EF90E4
:100FA00008954F925F926F927F92AF92BF92CF92CD
:100FB000DF92EF92FF920F931F93CF93DF93EC0199
:100FC0005B01FB01C080D180E280F3808A819B813C
:100FD000AC81BD818C159D05AE05BF0560F486E32F
:100FE0008C9DB0018D9D700D11248CAD9DAD0E9426
:100FF0006D159DAF8CAFCA82DB82EC82FD82E12C45
:10100000F12C412C512C320104E010E06E01F6E08D
:10101000CF0ED11C8A819B81AC81BD8148165906B7
:101020006A067B06D8F4B501600F711FC6010E94E5
:101030006006080F191FACADBDADAE0DBF1D86E338
:10104000F60101900D928A95E1F78FEF481A580A40
:10105000680A780AE6E3EE0EF11CDCCFC801DF91E6
:10106000CF911F910F91FF90EF90DF90CF90BF90A5
:10107000AF907F906F905F904F9008952F923F9226
:101080004F925F926F927F928F929F92AF92BF9298
:10109000CF92DF92EF92FF920F931F93CF93DF9344
:1010A000CDB7DEB760970FB6F894DEBF0FBECDBFE9
:1010B0008C016B01DB018D909D90AD90BC90FC018B
:1010C00082819381A481B58188159905AA05BB0504
:1010D00070F4B401660F771F660F771F82859385C2
:1010E0000E946D15D8011B969C938E931A97F80158
:1010F00082829382A482B5829601812C912C540124
:1011000044E050E0B8016A5F7F4F2C5F3F4FF80129
:1011100082819381A481B581FA0134961F018816DA
:101120009906AA06BB0650F5D9011196FC901197B5
:1011300012968C9190E0A0E0B0E0DC01992788271E
:101140009F29F901F0808F29F380BF29F801868358
:101150009783A087B187DA01A101149782859385CF
:10116000A80FB91F84E0FB0101900D928A95E1F769
:10117000FFEF8F1A9F0AAF0ABF0AC7CF4601840E3E
:10118000951ED4018C9111969C91119712964C90BA
:101190001297512C612C712C320155244424592A68
:1011A000482A13968C91782A5F01F80184859585E9
:1011B000A685B78584159505A605B70570F4B20117
:1011C000660F771F660F771F848995890E946D15BA
:1011D000D80155969C938E935497F8014486558672
:1011E00066867786C401412C512C32019801205F1C
:1011F0003F4FD8011C964D915D916D917C911F9749
:10120000F5013496441655066606770698F5DC0116
:101210001596FC90159716964C91169750E060E045
:1012200070E0BA01552744275F291496FC90149763
:101230004F291796FC907F29D80150964D935D93C6
:101240006D937C9353975F01AC01481959095496EB
:101250000D90BC91A02DA40FB51F44E0F9010190A1
:101260000D924A95E1F7BFEF4B1A5B0A6B0A7B0AB6
:101270000496BFCFD601AA0DBB1D8C9111969C91EF
:10128000119712968C901297912CA12CB12C54018D
:1012900099248824992A882A13968C91B82A7F0148
:1012A000F80186899789A08DB18D88159905AA05C1
:1012B000BB0560F4B401660F771F848D958D0E9485
:1012C0006D15D8015D969C938E935C97F801868A84
:1012D000978AA08EB18E212C312C812C912C540117
:1012E0009801265E3F4F3A872987F80186899789BA
:1012F000A08DB18D88169906AA06BB0608F05FC0BE
:10130000B6016E0D7F1DCE0101960E94FC01970172
:101310002C5F3F4F388B2F8749815A816B817C81AD
:10132000C901330FAA0BBB0B2C013D01440E551E06
:10133000661E771E4B865C866D867E8623E0E20EF7
:10134000F11CF601EE0DFF1D2F853889C901A0E0C3
:10135000B0E04B845C846D847E8484159505A6057D
:10136000B70528F4A181A1932F5F3F4FEFCF6F8482
:101370007888460D571DF601E40FF51F319710824E
:10138000C30101978C0D9D1DD8015B969C938E9394
:101390005A977A015C96ED91FC915D97E20DF31DF1
:1013A000A985BA858D919C9191838083BFEF8B1A1B
:1013B0009B0AAB0ABB0AE2E02E0E311C96CFC70196
:1013C00060960FB6F894DEBF0FBECDBFDF91CF9110
:1013D0001F910F91FF90EF90DF90CF90BF90AF9053
:1013E0009F908F907F906F905F904F903F902F9045
:1013F00008952F923F924F925F926F927F928F92B9
:101400009F92AF92BF92CF92DF92EF92FF920F9393
:101410001F93CF93DF93CDB7DEB7A6970FB6F8949F
:10142000DEBF0FBECDBF8C010E94A5104B015C0139
:1014300098012D59394F3E8B2D8BF9018081918177
:10144000A281B381A5019401281B390B4A0B5B0BC8
:10145000DA01C901893F9A42A105B10510F035971B
:10146000108218014CEA241A49EF340AD1018D91F7
:101470009C91892B79F0F801E959F94F808191818C
:10148000A281B38188159905AA05BB0518F4F1015D
:10149000118210829801245A394F3A8B298BA80166
:1014A000485A594F5C8B4B8BC8014896988F8F8B4D
:1014B000D801A25AB94FBC8FAB8FF801E459F94F4C
:1014C000FE8FED8F215F3F4F38A32F8F4250510980
:1014D000588B4F878E5B994F9A8F898F1996BAA335
:1014E000A9A3A50194012C5E3F4F4F4F5F4F2BA343
:1014F0003CA34DA35EA3F80184899589A689B78989
:10150000892B8A2B8B2B81F4D80112968D919C917B
:101510001397DC01ED91FC910284F385E02D199580
:101520009C0197FF14C08DC20E94A510DC01CB0165
:1015300088199909AA09BB09F801C488D588E688E1
:10154000F788C816D906EA06FB06F0F6A1C2A989F3
:10155000BA898D919C911197820F931F8D939C93C3
:10156000F1014081518147305105D9F4A98DBA8DDF
:101570008D919C911197AC014F5F5F4F4D935C93A0
:10158000F801E80FF91F208FEF85F889808191819C
:10159000019791838083892B09F0ADCF88E090E09B
:1015A00032C04115510539F52F3F310589F481E0ED
:1015B00090E0F101918380832BA13CA14DA15EA11C
:1015C000A9A1BAA12D933D934D935C93139793CF0B
:1015D0000E94A510DC01CB0188199909AA09BB0951
:1015E00089389341A105B10508F485CFF801E25A85
:1015F000F94F10824DC241305105A9F42E3F3105FB
:1016000031F482E090E0D1018D939C9374CFF1018D
:1016100011821082AB8DBC8D8C9181116CCFC80171
:101620000E94B11068CF4230510591F4EF85F889DE
:1016300031832083A98DBA8D1D921C9283E090E0A6
:10164000F10191838083A989BA892D933C9353CF6B
:101650004330510569F4322F2227EF85F8898081C4
:101660009181280F391F3183208384E090E0CBCF14
:101670004430510581F460E071E00E94D8148F3F3E
:10168000910531F485E090E0F1019183808333CFBF
:101690001182108230CF4530510571F4EB89FC89FD
:1016A0003183208386E090E0D1018D939C93E9897A
:1016B000FA89318320831FCF46305105A9F4322F98
:1016C0002227AB89BC898D919C911197280F391FD6
:1016D0002D933C9387E090E0F10191838083AF8567
:1016E000B8898D919C9157CF4830510509F003CFAF
:1016F000F1011182108260E071E00E94D8148F3FE6
:10170000910509F0F8CEAB89BC898D919C91009729
:1017100009F0C6C0C8010E94B1108BE592E09A831F
:1017200089831C821B828BE093E09E838D83988744
:101730008F839A8789871B861C861D861E86680173
:10174000B8EECB1AB9EFDB0A7801EAECEE1AE9EF52
:10175000FE0A412C24E0522E612C712CD601ED9111
:10176000FC913097A9F1848195819C838B83808142
:1017700091819E838D8382819381DC01ED91FC9127
:101780000480F581E02D199598878F83D601ED911E
:10179000FC9182819381DC01ED91FC910680F781BF
:1017A000E02D19959A8789874B865C866D867E86A3
:1017B000D601ED91FC9160857185D801ED91FC9188
:1017C0000190F081E02DAE014F5F5F4FC801199588
:1017D000B2E0CB0ED11CEC14FD0409F0BFCF412CBC
:1017E00092E0592E612C712CF701A081B1811097E4
:1017F000E1F112968D919C9113979C838B831496A3
:101800008D919C9115979E838D83ED91FC911197FD
:101810000480F581E02DCD01199598878F83D7013C
:101820008D919C91DC01ED91FC910680F781E02D7A
:1018300019959A8789874B865C866D867E86D80146
:10184000ED91FC91C080D180F70180819181DC0114
:10185000ED91FC910280F381E02D1995AE014F5F6F
:101860005F4FBC01C801F6011995F2E0EF0EF11CC3
:10187000E214F30409F0B8CFF801E25AF94F81E01D
:101880008083319680829182A282B382AD89BE89A3
:101890008D929D92AD92BC9213978FEF9FEFFDC0FA
:1018A0008A30910509F0A2C083E792E09A83898388
:1018B0001B821C821D821E821F82188619861A8630
:1018C0000E94A510F801C084D184E284F3849B01B6
:1018D000AC012C193D094E095F0969017A016F8934
:1018E000788DCE0101960E94D404C701B60128EE7E
:1018F00033E040E050E00E94EC14CB80DC80ED80CF
:10190000FE80C20ED31EE41EF51ECB82DC82ED8269
:10191000FE829B01AC0160E472E48FE090E00E94E3
:10192000C814CF80D884E984FA84DC01CB018C0D03
:101930009D1DAE1DBF1D8F839887A987BA870E9402
:10194000A510CF80D884E984FA8436E3D31A35E62B
:10195000E30A34ECF30A28EE33E040E050E00E9462
:10196000EC1429013A019B01AC0160E472E48FE0C0
:1019700090E00E94C814A7019601261B370B480B64
:10198000590BCA01B901CB80DC80ED80FE8031E0CB
:10199000C31AD108E108F108A701960124193509F5
:1019A0004609570929013A0120E03AEC4AE95BE38C
:1019B0000E94EC1473016201C20ED31EE41EF51ED8
:1019C000D8011C96CD92DD92ED92FC921F97F80102
:1019D000608B718B828B938B0E94A510AD89BE8921
:1019E0006D937D938D939C93139785CD8630910550
:1019F00059F46F89788D8D8D9E8D0E943E0881E00F
:101A0000EF8DF8A1808377CD8B30910521F4AB8DDC
:101A1000BC8D1C9270CDFC01E954FD4FEE0FFF1FF1
:101A2000E00FF11F80819181009709F464CDDC0102
:101A3000ED91FC910190F081E02D6F89788D1995E1
:101A40005ACDF801E25AF94F8081882321F17801BB
:101A5000B1EAEB1AB9EFFB0AF70180819181A2810B
:101A6000B381A5019401281B390B4A0B5B0BDA01EA
:101A7000C901853C9940A105B10568F0C8010E94E3
:101A8000B110D7018D929D92AD92BC92139703C075
:101A90008EEF9FEF02C080E090E0A6960FB6F8941C
:101AA000DEBF0FBECDBFDF91CF911F910F91FF9091
:101AB000EF90DF90CF90BF90AF909F908F907F90EE
:101AC0006F905F904F903F902F900895EF92FF920C
:101AD0000F931F93CF93DF938C01EB01FC01828165
:101AE00088838381898384818A8385818B838681AE
:101AF0008C8387818D8380858E8381858F8382858A
:101B000088878385898784858A8785858B87A6854D
:101B1000B785FD0101900020E9F731977F01EA1AAE
:101B2000FB0AA70160E070E0CE010C960E942A0239
:101B3000F80166857785A701CE0140960E94571669
:101B4000C7014096DF91CF911F910F91FF90EF90C9
:101B50000895CF92DF92EF92FF920F931F93CF934E
:101B6000DF937C018B0102960E94660DEC01F70168
:101B7000A289B389FD0101900020E9F731976F0137
:101B8000CA1ADB0AA60160E070E0C8018C0F9D1F35
:101B90000E942A022496F70162897389A601C8016E
:101BA0008C0F9D1F0E945716CC0DDD1DB8016C0FC8
:101BB0007D1FC70144960E94B5078C0F9D1FDF91C2
:101BC000CF911F910F91FF90EF90DF90CF900895EC
:101BD0004F925F926F927F92AF92BF92CF92DF92BD
:101BE000EF92FF920F931F93CF93DF93EC018B0142
:101BF0008A81FB0180838B8181838C8182838D81AB
:101C00008383DB0140E050E0BA01E4E0F0E01496A9
:101C1000CA80DB80EC80FD80CF0104964C155D0509
:101C20006E057F05C8F42A853B85E20FF31F3497C4
:101C3000D080F18032812381DC921196FC92119741
:101C400012963C93129713962C931397FC014F5FB7
:101C50005F4F6F4F7F4FDBCF5F01A00EB11E2C8512
:101C6000F50120832D8521832E8522832F852383D3
:101C7000D50140E050E0BA01CC84DD84EE84FF84DD
:101C80009C012C5F3F4F4C155D056E057F05F8F4F8
:101C9000CD018A199B09EC88FD888E0D9F1DFC01E2
:101CA000D080E180F28083811496DC92149715969F
:101CB000EC9215971696FC92169717968C93179799
:101CC000C9014F5F5F4F6F4F7F4F1496D5CFF8011B
:101CD000E80FF91F8E8980838F898183888D8283A5
:101CE000898D83837901A12CB12C412C512C320197
:101CF0008E899F89A88DB98D481659066A067B067C
:101D000080F5EC8DFD8DEA0DFB1DA081B181FD01FB
:101D100001900020E9F731976F01CA1ADB0AA6018A
:101D200060E070E0C8018E0D9F1D0E942A02F4E061
:101D3000EF0EF11CEC8DFD8DEA0DFB1D60817181B4
:101D4000A601C8018E0D9F1D0E945716EC0CFD1CAC
:101D50008FEF481A580A680A780AE2E0AE0EB11C02
:101D6000C7CFC701DF91CF911F910F91FF90EF90E7
:101D7000DF90CF90BF90AF907F906F905F904F902B
:101D80000895EF92FF920F931F93CF93DF938C01EF
:101D90007B01DC0112962C911297FB012193CF015C
:101DA0001396ED91FC911497EF0109900020E9F74B
:101DB0002197CE1BDF0BAE0160E070E00E942A028B
:101DC000D80113966D917C911497AE01C7010596C9
:101DD0000E945716CE010596DF91CF911F910F916A
:101DE000FF90EF900895CF92DF92EF92FF920F93C2
:101DF0001F93CF93DF937C018B01DC0112968C91B2
:101E00001297FB01808313968C911397818314960C
:101E1000ED91FC911597EF0109900020E9F72197CA
:101E2000CE1BDF0BAE0160E070E0C80102960E949D
:101E30002A02D70114966D917C911597AE01C801C5
:101E400006960E945716CE010696F701A681B78125
:101E5000FD0101900020E9F731976F01CA1ADB0AF2
:101E6000A60160E070E0800F911F0E942A022A966E
:101E7000D70116966D917C911797A601C8018C0F1A
:101E80009D1F0E945716CC0DDD1DD7011896ED91B0
:101E9000FC911997DF010D900020E9F711976D0172
:101EA000CE1ADF0AA60160E070E0C8018C0F9D1F0A
:101EB0000E942A022496F70160857185A601C80157
:101EC0008C0F9D1F0E945716C6018C0F9D1FD701B6
:101ED0001A966C911A971B964C911B971C963C91E5
:101EE0001C971D962C91F801E80FF91F6083418320
:101EF000328323830496DF91CF911F910F91FF903E
:101F0000EF90DF90CF900895FC01848DDF01A80F42
:101F1000B11DA35ABF4F2C91848D90E001968F7311
:101F20009927848FA689B7892C93A089B1898C9130
:101F3000837080648C93938D848D981306C002887F
:101F4000F389E02D80818F7D808308953FB7F894D9
:101F500080911D0590911E05A0911F05B09120054F
:101F600026B5A89B05C02F3F19F00196A11DB11DF4
:101F70003FBFBA2FA92F982F8827820F911DA11D2F
:101F8000B11DBC01CD0142E0660F771F881F991F6C
:101F90004A95D1F70895CF92DF92EF92FF920F9377
:101FA0001F93CF93DF936C017A018B01C0E0D0E0E7
:101FB000CE15DF0581F0D8016D918D01D601ED912F
:101FC000FC910190F081E02DC6011995892B11F04B
:101FD0002196EECF7E01C701DF91CF911F910F9126
:101FE000FF90EF90DF90CF900895089580E090E00B
:101FF0000895FC01538D448D252F30E0842F90E00F
:10200000821B930B541710F0CF96089501970895F3
:10201000FC01918D828D981761F0828DDF01A80FF0
:10202000B11D5D968C91928D9F5F9F73928F90E012
:1020300008958FEF9FEF0895FC01918D828D981781
:1020400031F0828DE80FF11D858D90E008958FEFBE
:102050009FEF089581E295E00E940E0121E0892B17
:1020600009F420E0822F08950E945216EF92FF9209
:102070000F931F93CF93DF93EC0181E0888F9B8DAB
:102080008C8D981305C0E889F989808185FD26C06B
:10209000F62E0B8D10E00F5F1F4F0F731127E02EF0
:1020A0008C8DE8120CC00FB607FCFACFE889F989CD
:1020B000808185FFF5CFCE010E94840FF1CF8B8DFB
:1020C000FE01E80FF11DE35AFF4FF0829FB7F8942D
:1020D0000B8FEA89FB89808180620AC09FB7F894E0
:1020E000EE89FF896083E889F98980818370806443
:1020F00080839FBF81E090E0DF91CF911F910F918E
:10210000FF90EF900895CF93DF93EC01888D8823A3
:10211000C9F0EA89FB89808185FD05C0A889B98954
:102120008C9186FD0FC00FB607FCF5CF808185FF2F
:10213000F2CFA889B9898C9185FFEDCFCE010E949D
:10214000840FE7CFDF91CF9108952FB7F894609176
:10215000190570911A0580911B0590911C052FBFE0
:1021600008950F931F93CF93DF93CDB7DEB72A97D0
:102170000FB6F894DEBF0FBECDBF8C0183E792E0AF
:102180009A8389831B821C821D821E821F8218866D
:1021900019861A86D801ED91FC910190F081E02D0D
:1021A000AE014F5F5F4F6AE070E0C80119950E9471
:1021B000A510F80160877187828793872A960FB6EA
:1021C000F894DEBF0FBECDBFDF91CF911F910F916D
:1021D00008951F920F920FB60F9211242F933F93E1
:1021E0008F939F93AF93BF938091190590911A0598
:1021F000A0911B05B0911C053091180523E0230F19
:102200002D3720F40196A11DB11D05C026E8230F2E
:102210000296A11DB11D2093180580931905909376
:102220001A05A0931B05B0931C0580911D05909184
:102230001E05A0911F05B09120050196A11DB11D9D
:1022400080931D0590931E05A0931F05B093200554
:10225000BF91AF919F918F913F912F910F900FBEA2
:102260000F901F9018951F920F920FB60F92112486
:102270000BB60F922F933F934F935F936F937F9380
:102280008F939F93AF93BF93EF93FF9381E295E07A
:102290000E94840FFF91EF91BF91AF919F918F9119
:1022A0007F916F915F914F913F912F910F900BBE56
:1022B0000F900FBE0F901F9018951F920F920FB6A0
:1022C0000F9211240BB60F922F938F939F93EF933E
:1022D000FF93E0913105F09132058081E09137055F
:1022E000F091380582FD12C0908180913A058F5F90
:1022F0008F7320913B05821751F0E0913A05F0E091
:10230000EF5DFA4F958F80933A0501C08081FF9170
:10231000EF919F918F912F910F900BBE0F900FBE59
:102320000F901F901895FC018FE492E091838083B9
:1023300087E392E093838283148215821682178248
:1023400010861186128613861486158616861786C1
:1023500083E492E0918B808B128A138A148A158A07
:10236000168A178A108E118E128E138E148E158E69
:10237000168E178E10A211A20895EF92FF920F935E
:102380001F93CF93DF93109224051092230588EEBC
:1023900093E0A0E0B0E08093250590932605A093FC
:1023A0002705B09328058FE792E09093220580934C
:1023B000210585EC90E090932E0580932D0584EC0B
:1023C00090E09093300580932F0580EC90E09093FF
:1023D00032058093310581EC90E090933405809331
:1023E000330582EC90E0909336058093350586ECBA
:1023F00090E0909338058093370510923A0510923B
:102400003B0510923C0510923D058DEC92E09093B7
:102410003D0680933C0681E295E090933F068093D1
:102420003E0680E091EEA0E0B0E0809340069093FD
:102430004106A0934206B093430610929A0C85EB96
:1024400092E09093A90C8093A80C1092AA0C109281
:10245000AB0C1092AC0C1092AD0C1092B30C10920D
:10246000B20C1092B40C1092B50C1092B60C1092E3
:10247000B70C1092BD0C1092BC0C1092BE0C1092B6
:10248000BF0C1092C00C1092C10C1092C50C10928F
:10249000C40CE2E7FCE0A4E5BCE01D921D92EA1743
:1024A000FB07D9F780E99CE0119211928E179F07E4
:1024B000D9F7A4E5B6E0E4E5F8E01D92EA17FB07DA
:1024C000E1F711928CE0E435F807D9F71092500645
:1024D00010925106109252061092530689EAE82E85
:1024E00082E0F82EF0920706E09206060DE912E06F
:1024F000109309060093080610920A0610920B0624
:1025000010920C0610920D0610920E0610920F06F5
:1025100010921006109211061092120610921306D5
:102520001092140610921506CBE0D3E0D093170654
:10253000C0931606D0931906C09318068AE196E058
:102540000E94931181E992E09093BF058093BE05AC
:102550001092C0051092C1051092C2051092C305D9
:10256000F092C505E092C4051093C7050093C60517
:102570001092C8051092C9051092CA051092CB0599
:102580001092CC051092CD051092CE051092CF0579
:102590001092D0051092D1051092D2051092D30559
:1025A000D093D505C093D405D093D705C093D60555
:1025B00088ED95E00E9493111092FB051092FA05A8
:1025C00083E195E09093FD058093FC058EEB95E00B
:1025D0009093FF058093FE05109205061092040665
:1025E000DF91CF911F910F91FF90EF900895789414
:1025F00084B5826084BD84B5816084BD85B5826008
:1026000085BD85B5816085BD80916E0081608093B8
:102610006E00109281008091810082608093810021
:102620008091810081608093810080918000816031
:10263000809380008091B10084608093B10080918C
:10264000B00081608093B00080919100826080939F
:102650009100809191008160809391008091900021
:102660008160809390008091A10082608093A1009E
:102670008091A10081608093A1008091A000816081
:102680008093A0008091210182608093210180913C
:1026900021018160809321018091200181608093DC
:1026A000200180917A00846080937A0080917A0082
:1026B000826080937A0080917A00816080937A00B2
:1026C00080917A00806880937A001092C100C09057
:1026D0004006D0904106E0904206F0904306C0913B
:1026E0003E06D0913F0660E079E08DE390E0A701DF
:1026F00096010E94EC14DA01C9010197A109B10900
:10270000B695A795979587959C01E889F98982E008
:102710008083C11481EED806E104F10421F0211573
:1027200090E13907A8F0E889F989108260E874E837
:102730008EE190E0A70196010E94EC14DA01C90134
:102740000197A109B109B695A795979587959C0121
:10275000EC85FD853083EE85FF852083188EEC891E
:10276000FD8986E08083EA89FB898081806180839E
:10277000EA89FB89808188608083EA89FB8980817E
:1027800080688083EA89FB8980818F7D80831092B5
:10279000910C1092900C1092930C1092920C10923B
:1027A000970C1092960C1092950C1092940CE4E5F4
:1027B000FCE080E090E021913191232B21F5FC0198
:1027C000EE0FFF1FEC5AF34F2CEF35E031832083DF
:1027D0008D589F4F90930106809300068CE396E0FE
:1027E000909303068093020696E0292E96E0392EF8
:1027F0000BE012E0C0E0D2E0412C512C20E8622E28
:102800002FE3722E24C001968F309105A1F6ECCFF4
:102810000E94A60FDC01CB0188199909AA09BB09FE
:10282000883E9340A105B10598F3B1E0CB1AD108D9
:10283000E108F10828EE820E23E0921EA11CB11CD3
:10284000C114D104E104F10419F70E941A01109394
:10285000170600931606D0931906C09318064092E7
:102860001E0650921F06609220067092210610925A
:102870002C0610922D0610922E0610922F06109202
:1028800030061092310610923206109233061092E2
:102890003406109235061092360610923706409292
:1028A00038065092390660923A0670923B060E94B2
:1028B000A51028EE33E040E050E00E94EC14C090F8
:1028C0004806D0904906E0904A06F0904B06C20EAA
:1028D000D31EE41EF51E9B01AC0160E472E48FE0A0
:1028E00090E00E94C81480904C0690904D06A090F5
:1028F0004E06B0904F06680D791D8A1D9B1D20E085
:102900003AEC4AE95BE30E94EC14C20ED31EE41ECB
:10291000F51EC0920E06D0920F06E0921006F092BD
:102920001106609312067093130680931406909319
:10293000150681E090E0A0E0B0E08093C0059093A0
:10294000C105A093C205B093C3053092FB05209248
:10295000FA0580910206909103066091000670913D
:102960000106DC01ED91FC910190F081E02D4EEB30
:1029700055E019958CE396E00E94F9090E94A60F94
:102980004B015C018AE0C82ED12CE12CF12C40CF08
:10299000DB018F939F930E940E15BF91AF91A29F71
:1029A000800D911DA39F900DB29F900D112408954D
:1029B00097FB072E16F4009407D077FD09D00E94EC
:1029C000191507FC05D03EF4909581959F4F089509
:1029D000709561957F4F0895A1E21A2EAA1BBB1B2B
:1029E000FD010DC0AA1FBB1FEE1FFF1FA217B307DB
:1029F000E407F50720F0A21BB30BE40BF50B661FF1
:102A0000771F881F991F1A9469F7609570958095B4
:102A100090959B01AC01BD01CF0108950E94351531
:102A2000A59F900DB49F900DA49F800D911D112422
:102A30000895AA1BBB1B51E107C0AA1FBB1FA61705
:102A4000B70710F0A61BB70B881F991F5A95A9F757
:102A500080959095BC01CD010895EE0FFF1F881F52
:102A60008BBF0790F691E02D1994A29FB001B39F00
:102A7000C001A39F700D811D1124911DB29F700D87
:102A8000811D1124911D08950E94491508F481E0CB
:102A90000895990F0008550FAA0BE0E8FEEF1616EF
:102AA0001706E807F907C0F012161306E407F50742
:102AB00098F0621B730B840B950B39F40A2661F0B6
:102AC000232B242B252B21F408950A2609F4A14059
:102AD000A6958FEF811D811D08956F927F928F9231
:102AE0009F92AF92BF92CF92DF92EF92FF920F939D
:102AF0001F93CF93DF93009789F4CB01DF91CF91A0
:102B00001F910F91FF90EF90DF90CF90BF90AF900B
:102B10009F908F907F906F900C946016FC01E60F51
:102B2000F71F9C0122503109E217F30708F4A9C0EE
:102B3000EC01D9010D911C91119706171707B0F000
:102B40000530110508F49BC0C80104978617970744
:102B500008F495C002501109061B170B019311933D
:102B60006D937C93CF010E94F81689C05B01A01A77
:102B7000B10A4C01800E911EA091C80CB091C90CF5
:102B8000612C712CE12CF12C109709F446C08D9129
:102B90009C911197A815B905B1F56C0142E0C40EDE
:102BA000D11CCA14DB0478F14C018A189B0864011B
:102BB00042E0C40ED11C1296BC9012971396AC91B1
:102BC000B5E0CB16D10440F0B282A383918280821B
:102BD000D9016D937C9309C00E5F1F4F800F911F29
:102BE000F90191838083EB2DFA2FE114F10431F088
:102BF000D7011396FC93EE93129741C0F093C90C42
:102C0000E093C80C3CC06816790608F43C017D01CD
:102C100012960D90BC91A02DB7CF8091C60C9091CB
:102C2000C70C88169906E1F466167706C8F48091F9
:102C3000110290911202009741F48DB79EB7409116
:102C4000150250911602841B950BE817F907C8F47A
:102C5000F093C70CE093C60CF901718360830FC039
:102C6000CB010E9460167C01009759F0A801BE01BB
:102C70000E945716CE010E94F816C70104C0CE016B
:102C800002C080E090E0DF91CF911F910F91FF9003
:102C9000EF90DF90CF90BF90AF909F908F907F90FC
:102CA0006F90089581E090E0F8940C948117FB01F7
:102CB000DC0102C001900D9241505040D8F70895B8
:102CC0000F931F93CF93DF938230910510F482E02E
:102CD00090E0E091C80CF091C90C20E030E0A0E059
:102CE000B0E0309719F1408151810281138148177A
:102CF0005907C8F08417950769F4109731F01296B8
:102D00000C93129713961C9327C00093C80C109332
:102D1000C90C22C02115310519F04217530718F4C8
:102D20009A01BD01EF01DF01F801DBCF211531056B
:102D3000F9F0281B390B2430310580F48A819B81FE
:102D40006115710521F0FB019383828304C0909388
:102D5000C90C8093C80CFE01329644C0FE01E20FFC
:102D6000F31F8193919322503109398328833AC00C
:102D70002091C60C3091C70C232B41F420911302F3
:102D8000309114023093C70C2093C60C209111028D
:102D9000309112022115310541F42DB73EB7409113
:102DA000150250911602241B350BE091C60CF091D0
:102DB000C70CE217F307A0F42E1B3F0B28173907A7
:102DC00078F0AC014E5F5F4F2417350748F04E0F87
:102DD0005F1F5093C70C4093C60C8193919302C020
:102DE000E0E0F0E0CF01DF91CF911F910F910895C6
:102DF000CF93DF93009709F481C0FC0132971382CF
:102E00001282A091C80CB091C90C109781F4208156
:102E10003181820F931F2091C60C3091C70C281767
:102E2000390751F5F093C70CE093C60C67C0ED016C
:102E300020E030E0CE17DF0740F44A815B819E013D
:102E400041155105F1F0EA01F5CFD383C2834081EA
:102E50005181840F951FC817D90759F4888199812A
:102E6000840F951F0296918380838A819B8193832F
:102E700082832115310529F4F093C90CE093C80C25
:102E80003DC0E901FB83EA8349915991C40FD51FE5
:102E9000EC17FD0761F480819181840F951F0296E4
:102EA000E90199838883828193819B838A83E0E00F
:102EB000F0E012968D919C911397009719F0FD0107
:102EC000DC01F7CF8D919C9111979D012E5F3F4FB3
:102ED000820F931F2091C60C3091C70C2817390719
:102EE00069F4309729F41092C90C1092C80C02C0F2
:102EF00013821282B093C70CA093C60CDF91CF91BE
:062F00000895F894FFCFD4
:102F06002F626173655F6C696E6B002F6F646F6D06
:102F1600000000CA0C2000726F7373657269616CE1
:102F26005F6D7367732F5265717565737450617247
:102F3600616D000000000085071A06B602B30200A4
:102F46000000004907E605B002AD0200000000B52A
:102F5600074406AA02A70200000000F30EE003DD04
:102F660003DA0300000000C10E840381037E030020
:102F76000000001A05D404D104CE04000000003677
:102F860010CB0FF90F83100E0108101C1000000063
:102F9600004D02D1074A02470200000000660DBF3D
:102FA60002BC02B90200000000A90D6006A402A13D
:102FB6000200000000E80D3E087B037803000000D5
:102FC600003410341034103410000000005801F999
:102FD6000953014D6573736167652066726F6D20D5
:102FE6006465766963652064726F707065643A2003
:102FF6006D657373616765206C61726765722074B5
:1030060068616E206275666665722E0039343831E5
:1030160030656464613538336135303464666461C3
:103026003338323965373064376565630074662F27
:1030360074664D6573736167650062353736346152
:1030460033336266656233353838666562633236B5
:10305600383238353235373962300067656F6D651D
:103066007472795F6D7367732F5472616E73666FD6
:10307600726D5374616D706564006163396566666F
:103086003434616266373134323134313132623050
:10309600356435346133636639620067656F6D6523
:1030A6007472795F6D7367732F5472616E73666F96
:1030B600726D006137373938373966616466303189
:1030C60036303733346639303662386331396337F0
:1030D6003030340067656F6D657472795F6D736744
:1030E600732F5175617465726E696F6E0034613845
:1030F60034326236356634313330383464633262A2
:103106003130666234383465613766313700676559
:103116006F6D657472795F6D7367732F566563742F
:103126006F7233003231373664656361656362639B
:1031360065373861626333623936656630343966BD
:1031460061626564007374645F6D7367732F4865AD
:103156006164657200396630653938626461363596
:1031660039383139383664646635336166613761BA
:10317600343065343900313161626437333163325A
:10318600353933333236316364363138336264313C
:1031960032643632393500726F7373657269616CE9
:1031A6005F6D7367732F4C6F6700306164353166EE
:1031B60038386663343438393266386331303638F5
:1031C6003430373736343630303500726F737365C6
:1031D6007269616C5F6D7367732F546F70696349B1
:1031E6006E666F0063643731363663373463353560
:1031F60032633331316662636332666535613762E5
:1032060063323839007374645F6D7367732F546962
:083216006D65002F74660000D5
:00000001FF
